:020000040000FA
:020000002028B6
:080008000528220071181228DE
:100010007208F3007408F5007608F70022000D144A
:100020008D147114F30B162871101E282200F50B85
:100030001A280D102200F70B1E288D100B11090035
:100040002100F030990022007F309D002200003016
:100050009E0023008D018C0121008D01FF308C005A
:100060002000E0308B0021008830950022008C01B8
:100070008D01F201F401F601F101F0013F28C830D1
:10008000F2000130F4000130F60081204728200002
:100090000C1C48282200512820000C1C4D2822004E
:1000A0006928C830F4000130F60020008C1C5F285D
:1000B00022000130F4000130F600812047282000A2
:1000C0000C1D552822000130F4000130F60081207B
:1000D00069280130F400C830F60020008C1C772815
:1000E00022000130F4000130F60081204C2820006D
:1000F0008C1D6D2822000130F4000130F6008120B3
:1001000051280530A2000830A1002E30A000A00B1D
:0C0110008728A10B8528A20B832808007B
:020000040001F9
:02000E00840F5D
:02001000FF1FD0
:00000001FF
