:020000040000FA
:020000000528D1
:0800080009002100F03099000D
:1000100022007F309D00220000309E0023008D01D1
:100020008C0121008D01FF308C0022008D01220007
:100030008D0120000C1C1A28232822008D0120008D
:100040000C1C20283A2822000D1551200D1151209A
:100050008D1451208D1051200D1451200D10512060
:100060008D1551208D11512020008C1817288C1DC2
:1000700023283A2822008D1551208D1151200D146E
:1000800051200D1051208D1451208D1051200D152F
:1000900051200D11512020008C181D280C1D3A28CC
:1000A00023280F30A2000730A1002E30A000A00BA3
:0C00B0005728A10B5528A20B532808006C
:020000040001F9
:02000E00840F5D
:02001000FF1FD0
:00000001FF
