:020000040000FA
:020000000528D1
:0800080009002100F03099000D
:1000100022007F309D00220000309E0023008D01D1
:100020008C0121008D01FF308C0022008C018D019C
:1000300020000C1C19282200222820000C1C1E283D
:10004000220035280D148D1020000C1D2D28282885
:1000500022000D108D104820352820008C1C2228ED
:1000600022000D108D10482018280D108D1420002E
:100070008C1D40283B2822000D108D10482022287E
:1000800020008C1C352822000D108D1048201D28C2
:100090000530A2000830A1002E30A000A00B4E2891
:0A00A000A10B4C28A20B4A2808000F
:020000040001F9
:02000E00840F5D
:02001000FF1FD0
:00000001FF
