:020000040000FA
:020000002028B6
:080008000528220071181228DE
:100010007208F3007408F5007608F70022000D144A
:100020008D147114F30B162871101E282200F50B85
:100030001A280D102200F70B1E288D100B11090035
:100040002100F030990022007F309D002200003016
:100050009E0023008D018C0121008D01FF308C005A
:100060002000E0308B0021008830950022008C01B8
:100070008D01F201F401F601F101F0013F28C830D1
:10008000F2000130F4000130F600462820000C1C7C
:10009000472822004B286430F4000130F60020008D
:1000A0008C1C4F2822000130F4000130F60059204A
:1000B00046280530A2000830A1002E30A000A00B79
:0C00C0005F28A10B5D28A20B5B28080044
:020000040001F9
:02000E00840F5D
:02001000FF1FD0
:00000001FF
