:020000040000FA
:020000000528D1
:0800080009002100F03099000D
:1000100022007F309D00220000309E0023008D01D1
:100020008C0121008D018C0122003F208D010130C7
:100030005F2024200A30A300662018305F20A30B25
:100040001C2801305F20172880305F205330552056
:1000500049305520C0305F2046305520553055205E
:100060004E30552043305520493055204F305520D3
:100070004E30552041305520213055200800732046
:100080007320732030305F2030305F2030305F20AD
:100090003C305F2008305F2001305F2006305F2059
:1000A0000C305F2002305F20080022008D000C170A
:1000B0000000000000008C1773208C130800220041
:1000C0008D000C138C1773208C1308005030A20085
:1000D000C830A100A630A000A00B6C28A10B6A2894
:1000E000A20B682808000130A2006430A100A630ED
:1000F000A000A00B7928A10B7728A20B7528080077
:020000040001F9
:02000E00C40F1D
:02001000FF1FD0
:00000001FF
