:020000040000FA
:020000000528D1
:0800080009002100F03099000D
:1000100022007F309D00220000309E0023008D01D1
:100020008C0121008D01FF308C0022008D01220007
:100030008D0120000C1C1A28232822008D0120008D
:100040000C1C20284328220022000D1562207C2051
:100050000D1162207C208D1462207C208D10622086
:100060007C200D1462207C200D1062207C208D15D8
:1000700062207C208D1162207C2020008C181728A3
:100080008C1D2328432822008D1562207C208D1191
:1000900062207C200D1462207C200D1062207C20C8
:1000A0008D1462207C208D1062207C200D15622032
:1000B0007C200D1162207C2020008C181D280C1D36
:1000C0004328232820008C1B6A2866280C1B7028D4
:1000D000220008002200A30F7928FF30A30079280E
:1000E0002200A3032308013C031D79280230A3004A
:1000F00079282200000008002308A2001A30A1007D
:100100006430A000A00B8228A10B8028A20B7E28BF
:020110000800E5
:020000040001F9
:02000E00840F5D
:02001000FF1FD0
:00000001FF
