:020000040000FA
:020000000528D1
:0800080009002100F03099000D
:1000100022007F309D00220000309E0023008D01D1
:100020008C0121008D0122008D013F308D00462082
:1000300006308D0046205B308D0046204F308D000D
:10004000462066308D0046206D308D0046207D3084
:100050008D00462047308D0046207F308D004620A1
:1000600067308D00462077308D0046207C308D0033
:10007000462039308D0046205E308D004620793094
:100080008D00462071308D00462015285030A2008A
:10009000C930A100A530A000A00B4C28A10B4A2814
:0600A000A20B4828080035
:020000040001F9
:02000E00840F5D
:02001000FF1FD0
:00000001FF
