:020000040000FA
:020000000928CD
:08000800230019089A00F00022
:1000100009002100F030990022007F309D0022006D
:1000200000309E0023008D018C01210002308D00E4
:100030008C01342022001C287008313C031D242828
:1000400022000C14F0011C287008323C031D2C28DF
:1000500022008C14F0011C287008413C031D1C2850
:1000600022008C01F0011C28230000309F00230097
:10007000CF309B0000309C00230090309D00210079
:1000800091162000C0308B00230024309E00080011
:020000040001F9
:02000E00840F5D
:02001000FF1FD0
:00000001FF
